This packet has length 0x28 (40) bytes but has an extra 6 bytes at the end:

```
12:01:59.775343 IP 192.168.1.136.telnet > 192.168.1.113.45034: Flags [.], ack 54, win 1672, length 0
	0x0000:  4500 0028 015a 4000 8006 752c c0a8 0188
	0x0010:  c0a8 0171 0017 afea 0000 1b99 5e2f 3952
	0x0020:  5010 0688 c1e6 0000 0000 86e3 de3b
```
